:100000000C9430000C94B0020C9478090C9487097D
:100010000C944D000C941C030C944D000C944D005A
:100020000C944D000C94BC090C944D000C94960952
:100030000C944D000C942E0A0C944D000C944D0021
:100040000C94EE090C944D000C944D000C944D0052
:100050000C944D006364696E6F70737578585B0023
:1000600011241FBECFE5D8E0DEBFCDBF11E0A0E672
:10007000B0E0E4E8F4E202C005900D92A43AB107C2
:10008000D9F722E0A4EAB1E001C01D92AF37B20770
:10009000E1F70E94FE080C9440120C9400009AE1D3
:1000A000899F90011124932F990F930F990F890F16
:1000B0000895809160000895EF92FF920F931F932F
:1000C000CF93DF93C82F7B01142F0E94FD040E9461
:1000D000FA04883029F0803119F01092600032C0A3
:1000E00080ED0E940B050E94FA04883129F08032CD
:1000F00019F01092600026C08C2F0E940B050E9400
:10010000FA04883219F4111106C019C08033D9F3EA
:100110001092600017C0E7011150012F10E00F5F2F
:100120001F4F0E0D1F1D89910E940B050E94FA049E
:10013000883211F0803319F4C017D107A1F781E09C
:10014000809360000E940505DF91CF911F910F9170
:10015000FF90EF900895CF93DF931F92CDB7DEB756
:10016000698341E0BE016F5F7F4F0E945C000F908A
:10017000DF91CF910895FF920F931F93CF93DF9359
:10018000D82F8B01C42F0E94FD040E94FA048830EE
:1001900029F0803119F0109260005BC080ED0E9460
:1001A0000B050E94FA04883129F0803219F0109270
:1001B00060004FC08D2F0E940B050E94FA04883208
:1001C00029F0803319F01092600043C00E94FD04B2
:1001D0000E94FA04883029F0803119F010926000F2
:1001E00038C081ED0E940B050E94FA04877F80349D
:1001F00039F4D0E021971C161D062CF0F12C18C004
:100200001092600026C0F12C0E941405F801EF0D39
:10021000F11D80830E94FA04877F803519F01092C7
:10022000600006C0F3948F2D90E08C179D0764F357
:10023000E801CF0DD11D0E941B0588830E94FA049E
:10024000877F803519F01092600003C081E08093B1
:1002500060000E940505DF91CF911F910F91FF90E3
:100260000895CF93DF931F92CDB7DEB741E0BE0173
:100270006F5F7F4F0E94BB0089810F90DF91CF910C
:1002800008950F931F93CF93DF93D82F062F142F2A
:100290000E943101482F50E060E070E0002E04C061
:1002A00076956795579547950A94D2F7C42FC170F4
:1002B00041E050E060E070E004C0440F551F661F4D
:1002C000771F0A95D2F7111104C0642F6095682337
:1002D00002C0682F642B8D2F0E94AB008C2FDF9102
:1002E000CF911F910F910895AF92BF92CF92DF925D
:1002F000EF92FF920F931F93CF93DF93CDB7DEB7AB
:1003000028970FB6F894DEBF0FBECDBFA32EB42E34
:10031000C52ED62EE72EF82E822F0E944F000CEB12
:1003200011E0F80180838A2D0E944F00F80181833B
:100330008B2D0E944F00F80182838C2D0E944F006C
:10034000F80183838D2D0E944F00F80184838E2D48
:100350000E944F00F801858380E38F0D0E944F00BB
:10036000F801868347E0B80180E00E945C0028968F
:100370000FB6F894DEBF0FBECDBFDF91CF911F91B6
:100380000F91FF90EF90DF90CF90BF90AF900895C6
:10039000CF93DF93CDB7DEB728970FB6F894DEBFC3
:1003A0000FBECDBF47E06CEB71E080E00E94BB0068
:1003B000ECEBF1E02081318142814F735381648104
:1003C00075818681922F92959F70E92FEE0F9E0F77
:1003D000990F291B932F92959F70E92FEE0F9E0F77
:1003E000990F391B942F92959F70E92FEE0F9E0F56
:1003F000990F491B952F92959F70E92FEE0F9E0F35
:10040000990F591B962F92959F70E92FEE0F9E0F13
:10041000990F691B972F92959F70E92FEE0F9E0FF2
:10042000990F791B982F92959F70E92FEE0F9E0FD1
:10043000990F891B90E08053984F98878F839885F8
:1004400028960FB6F894DEBF0FBECDBFDF91CF91D7
:100450000895EF92FF920F931F93CF93DF93C82FCE
:10046000D62F142FE22E802F0E944F00F82E8E2DB3
:100470000E944F00082F812F0E944F00182F8D2FB0
:100480000E944F00D82FC0FF03C08F2D8068F82E28
:10049000C1FD0068C2FD1068C3FDD068C4FDD06412
:1004A000CC2334F06F2D87E00E94AB00C8E001C080
:1004B000CBE0602F8C2F0E94AB00612F81E08C0F6E
:1004C0000E94AB006D2F82E08C0F0E94AB00DF9189
:1004D000CF911F910F91FF90EF900895CF93DF93ED
:1004E000D82FC62F462F62E08EE00E9441014C2F8C
:1004F0006D2F8EE00E944101DF91CF91089540E081
:10050000682F8FE00E944101089589B7806489BFF8
:1005100082E085BD14BC089585B7816085BF8BB727
:1005200080648BBF08958C9A8A98929A0E948C025C
:100530000E94850208958091A901811108C0949AB2
:1005400088E28A95F1F7949881E08093A9016091FF
:10055000C3017091C4018091C5019091C6010895B5
:100560001F920F920FB60F9211242F933F934F9328
:100570005F936F937F938F939F93AF93BF93EF930B
:10058000FF938091A901813009F045C08091A801B5
:1005900081110DC014BC81E08093A8011092A401C8
:1005A0001092A5011092A6011092A70134C024B5A3
:1005B0008091A4019091A501A091A601B091A701FD
:1005C000BA2FA92F982F8827BC01CD01620F711D6A
:1005D000811D911D2AE330E040E050E00E94F00BC5
:1005E0002093C3013093C4014093C5015093C601C9
:1005F0002FEF89EF90E0215080409040E1F700C05C
:1006000000001092A4011092A5011092A601109270
:10061000A7011092A801FF91EF91BF91AF919F9117
:100620008F917F916F915F914F913F912F910F909B
:100630000FBE0F901F9018951F920F920FB60F923A
:1006400011242F938F939F93AF93BF938091A40115
:100650009091A501A091A601B091A7010196A11DBD
:10066000B11D8093A4019093A501A093A601B0931E
:10067000A7018B3D9240A105B10568F014BC109212
:10068000A9011092A8011092A4011092A501109244
:10069000A6011092A701BF91AF919F918F912F91C9
:1006A0000F900FBE0F901F9018959B01AC0111B8D1
:1006B00060E072E18AE790E00E94F00BDA01C90184
:1006C0004097A109B109B695A7959795879580B9E7
:1006D000089516BE94EA96BF06B607FEFDCF91B107
:1006E000987F983011F0903181F4880F682B63B9AE
:1006F00084E886BF06B607FEFDCF81B1887F8831CA
:1007000031F0803431F084E108958AE0089580E08A
:10071000089580E0089583B984E886BF06B607FE91
:10072000FDCF81B1887F883211F480E0089585E1A2
:100730000895CF93C62F60E00E946903811107C01E
:100740008C2F0E948B03811102C094E996BFCF9138
:100750000895FC019381692B80810E94990308957B
:100760000F931F93CF938C01C62F64600E94A9033F
:1007700085E08A95F1F700006C2F6B7FC8010E941D
:10078000A90385E88A95F1F70000CF911F910F9199
:1007900008951F93CF93DF93EC01162F0E94A903B6
:1007A000612FCE010E94B003DF91CF911F91089578
:1007B0000F931F93CF93DF938C01C62FD42F607FAD
:1007C000642B0E94C90380E1C89FB00111246D2BE6
:1007D000C8010E94C903DF91CF911F910F91089525
:1007E0000F931F93CF93DF93EB016881662349F04A
:1007F0008C01219641E0C8010E94D80369916111E2
:10080000F9CFDF91CF911F910F91089540E00E94A1
:10081000D8030895CF93DF9300D000D0CDB7DEB7D3
:10082000198220E42A8324E12B8324E52C83FE0112
:10083000E60FF11D2181642F620F60680E9406049B
:100840000F900F900F900F90DF91CF910895CF935D
:10085000DF93EC0161E00E9406048FE99FE00197BD
:10086000F1F700C0000040E060E0CE010E940A0401
:10087000DF91CF91089562E00E9406048FE99FE026
:100880000197F1F700C000000895FC016581262F53
:10089000246025836C600E9406040895CF93DF9343
:1008A000CDB7DEB72E970FB6F894DEBF0FBECDBF23
:1008B000888769874A871B862C8784E08D8782E03A
:1008C0008E87423018F0822F88608C87222329F08F
:1008D000413019F48C8584608C872FEF80E792E09B
:1008E000215080409040E1F700C0000060E0CE0160
:1008F00008960E94A9032FEF80E792E021508040E4
:100900009040E1F700C0000060E3CE0108960E942D
:10091000A90387E293E20197F1F700C0000060E3CA
:10092000CE0108960E94C90387E293E20197F1F78E
:1009300000C0000060E3CE0108960E94C9038BE26C
:1009400091E00197F1F700C0000060E2CE01089647
:100950000E94C9036C856062CE0108960E9406045D
:10096000CE0108960E944504CE0108960E942704F5
:100970006E856460CE0108960E940604CE0108963A
:100980000E943B0487E0FE013896DE01119601903B
:100990000D928A95E1F729813A814B815C816D81C5
:1009A0007E818F8190E02E960FB6F894DEBF0FBE49
:1009B000CDBFDF91CF91089588E18AB980B586686F
:1009C00080BD83E389B9579A089590E49BB98CB9A7
:1009D0005E9BFECF0895CF93DF93EC01888188233F
:1009E00031F021960E94E50489918111FBCFDF91BE
:1009F000CF91089581B1887F089584EA86BF06B6B5
:100A000007FEFDCF81B1887F089585ED86BF06B6CC
:100A100004FCFDCF089583B984E886BF06B607FEBF
:100A2000FDCF81B1887F089584EC86BF06B607FEAE
:100A3000FDCF83B1089584E886BF06B607FEFDCFDB
:100A400083B10895939A85B7886085BF85B78B7FFA
:100A500085BF8BB780688BBF0895C29A84B78F7BA0
:100A600084BF8BB780628BBF089589B7816089BFCF
:100A700085E083BF81EB82BF089589B7846089BF19
:100A800085E08EBD8BE791EE9DBD8CBD0895A39A48
:100A9000A49AA59AA69A0895D09887B1806C87B930
:100AA00086B18F6886B9089560E87AE186E090E0C3
:100AB0000E945503E7ECF1E087E3282F80838BE366
:100AC000382F818387E1482F828382E0582F8383E8
:100AD0008FE1682F84838CE0782F858388EE86836E
:100AE00097E097839091CE010E9474010895EF9250
:100AF000FF920F931F93CF93DF93CDB7DEB7649729
:100B00000FB6F894DEBF0FBECDBF20E042E060E13B
:100B100083E20E944E042093CF013093D001409392
:100B2000D1015093D2016093D3017093D40180938B
:100B3000D5010E94C801E7ECF1E0208331834283B4
:100B4000538364837583868397830E945900813021
:100B500009F049C040E060E08FEC91E00E940A0497
:100B600007EC11E0F80180811F928F9381811F9221
:100B70008F9382811F928F938FE690E09F938F9344
:100B80007E01FBE0EF0EF11CFF92EF920E94220C1F
:100B9000B7018FEC91E00E94F00340E061E08FEC40
:100BA00091E00E940A04F80184811F928F9385814D
:100BB0001F928F9387818F9386818F938EE790E02A
:100BC0009F938F938E010F5F1F4F1F930F930E9470
:100BD000220CB8018FEC91E00E94F0030FB6F8945C
:100BE000DEBF0FBECDBF64960FB6F894DEBF0FBE5A
:100BF000CDBFDF91CF911F910F91FF90EF9008959E
:100C00000F938F9A00E020E040E060E088E00E94CF
:100C1000290261E080E00E946E020F9108950E9417
:100C200022050E942D050E9435050E943D050E9467
:100C300047050E944C050E9454050E9477050E94BA
:100C400000060E94DC040E94930208958F929F92F6
:100C5000AF92BF92CF92DF92EF92FF920F931F93CA
:100C6000CF93DF93CDB7DEB7C055D1090FB6F89457
:100C7000DEBF0FBECDBF19821D8A19A61DAE0F2E75
:100C8000F7E5AF2EF2E0BF2EF02DF50110821092A5
:100C90006B0210923F027E01FDE3EF0EF11CFF920A
:100CA000EF926E0189E2C80ED11CDF92CF928E01C5
:100CB0000B5E1F4F1F930F93FE0131964F01FF9361
:100CC000EF938DE890E09F938F9387ED91E09F9352
:100CD0008F930E94440C1F930F939F928F9283E9EE
:100CE00090E09F938F93BF92AF920E94220CB60127
:100CF0008BE692E00E941B0CB7018FE392E00E940A
:100D00001B0C0FB6F894DEBF0FBECDBFC05BDF4F2C
:100D10000FB6F894DEBF0FBECDBFDF91CF911F910C
:100D20000F91FF90EF90DF90CF90BF90AF909F908A
:100D30008F900895EF92FF920F931F93CF93DF93BD
:100D4000CDB7DEB728970FB6F894DEBF0FBECDBF84
:100D50008C0188E0E7E6F0E0DE01119601900D924B
:100D60008A95E1F710161106CCF520E030E0AE01CF
:100D70004F5F5F4F7E0189E0E80EF11C6130710525
:100D800039F5FE0131969081329695BB9FE7A8E335
:100D900081E09150A0408040E1F700C00000EE15D6
:100DA000FF0589F70FC03297908195BB9FE7A8E3B5
:100DB00081E09150A0408040E1F700C000004E1754
:100DC0005F0789F72F5F3F4F02171307B9F606C079
:100DD00061157105B9F7FE013996E5CF28960FB672
:100DE000F894DEBF0FBECDBFDF91CF911F910F9161
:100DF000FF90EF900895369A0895EF92FF920F9327
:100E00001F93CF93DF93CDB7DEB7EC970FB6F8946F
:100E1000DEBF0FBECDBF0E94C801E7ECF1E020832A
:100E200031834283538364837583868397830E94CF
:100E30005900813009F049C040E060E08FEC91E05A
:100E40000E940A0407EC11E0F80180811F928F9341
:100E500081811F928F9382811F928F938FE690E002
:100E60009F938F937E01F9E2EF0EF11CFF92EF92B8
:100E70000E94220CB7018FEC91E00E94F00340E049
:100E800061E08FEC91E00E940A04F80184811F92D6
:100E90008F9385811F928F9387818F9386818F9304
:100EA0008EE790E09F938F938E010B5E1F4F1F93F1
:100EB0000F930E94220CB8018FEC91E00E94F00386
:100EC0000FB6F894DEBF0FBECDBF8091D6011F9242
:100ED0008F9389E990E09F938F938E010F5F1F4F4F
:100EE0001F930F930E94220C4CE061E08FEC91E085
:100EF0000E940A04B8018FEC91E00E94F0038091F7
:100F00003E028F9380913D028F9380913C028F939C
:100F100080913B028F938FE990E09F938F93065FC0
:100F20001F4F1F930F930E94220C4BE060E08FEC49
:100F300091E00E940A04B8018FEC91E00E94F00356
:100F40000FB6F894DEBF0FBECDBFEC960FB6F89487
:100F5000DEBF0FBECDBFDF91CF911F910F91FF90EC
:100F6000EF9008950E949B0260933B0270933C02B5
:100F700080933D0290933E02DC01CB010197A109D1
:100F8000B1094497A105B10518F481E08093B3013C
:100F900008950F931F93CF93DF93CDB7DEB72C97B0
:100FA0000FB6F894DEBF0FBECDBF162F072F9E01E0
:100FB0002B5F3F4F3F932F93225031093F932F9345
:100FC000225031093F932F9326EA30E03F932F932D
:100FD0009F938F930E94440CCE010B969F938F9307
:100FE00004979F938F9302969F938F938FEA90E03D
:100FF0009F938F930F931F930E94440CE7ECF1E0B3
:101000008D81282F80838B81382F81838981482F80
:10101000828382E0582F83838F81682F8483898520
:10102000782F85838B859C858053984F9783868303
:101030009091CE010E9474010FB6F894DEBF0FBEEE
:10104000CDBF2C960FB6F894DEBF0FBECDBFDF919B
:10105000CF911F910F9108956FE372E08BE692E0BC
:101060000E94C9070E94FD0688EB90E00E94EB04F5
:1010700008950F93CF93DF9300D000D000D0CDB769
:10108000DEB7CE0105969F938F9302979F938F9320
:1010900002979F938F9386EA90E09F938F938BE6BE
:1010A00092E09F938F930E94440C0D812B81498184
:1010B00060E088E00E94290288EB90E00E94EB0447
:1010C0000FB6F894DEBF0FBECDBF26960FB6F894CC
:1010D000DEBF0FBECDBFDF91CF910F91089580ECA1
:1010E00090E00E94EB048DED90E00E94EB048DEF08
:1010F00090E00E94EB0487E191E00E94EB048FE214
:1011000091E00E94EB0408958091B201811109C021
:1011100061E070E084E090E00E949A0681E08093B4
:10112000B20108958091B201882341F060E070E03F
:1011300084E090E00E949A061092B2010895809196
:10114000B201811106C081E08093B0010E94840841
:1011500008950E9492081092B001089580E00E94C4
:101160007F02979808958D3039F4E091AA01F0E05C
:10117000E952FE4F108209C09091AA01E92FF0E0D8
:10118000E952FE4F8083811135C00E94260660918E
:1011900065007091660087E592E00E94120C892B31
:1011A00021F481E08093B70120C0609163007091C9
:1011B000640087E592E00E94120C892B21F481E003
:1011C0008093B60112C0609161007091620087ED5A
:1011D00091E00E94120C892B21F481E08093B501EB
:1011E00004C08AE491E00E94EB041092D7011092AF
:1011F000AA0108959F5F9093AA0108950E940F0687
:101200008BE591E00E94EB0489E691E00E94EB04FB
:1012100078948091BB01882351F08091B0018111B5
:1012200002C00E94B2071092AB011092BB018091E4
:10123000BA01882341F00E94FB060E94FD0610922D
:10124000AE011092BA018091B901882341F00E9449
:10125000AE081092AD011092AC011092B9018091CC
:10126000B801882351F08091B001811102C00E9421
:1012700092081092AF011092B8018091B3018823B7
:1012800051F08091B001811102C00E948408109237
:10129000AF011092B3018091B401882339F0979A7D
:1012A0001092AD011092AC011092B4018091B10185
:1012B000882321F00E949F081092B1018091B7010C
:1012C000882321F00E942C081092B7018091B6016A
:1012D000882321F00E9439081092B6018091B5014F
:1012E000882309F496CF0E946F081092B50191CF20
:1012F0001F920F920FB60F9211248F9381E080936B
:10130000B4018F910F900FBE0F901F9018951F92F0
:101310000F920FB60F9211248F9381E08093B10149
:101320008F910F900FBE0F901F9018951F920F92E4
:101330000FB60F9211248F939F9381EB82BF81E0B0
:1013400088BF9091AB019F5F9093AB018091AE01FC
:101350008F5F8093AE01923319F491E09093BB01BB
:10136000843619F481E08093BA019F918F910F9098
:101370000FBE0F901F9018951F920F920FB60F92ED
:1013800011242F933F938F939F938BE791EE9DBDF5
:101390008CBD84E088BF2091AC013091AD012F5FFE
:1013A0003F4F3093AD012093AC018091AF018F5F2F
:1013B0008093AF012330310519F491E09093B90186
:1013C0008A3019F481E08093B8019F918F913F9109
:1013D0002F910F900FBE0F901F9018951F920F9294
:1013E0000FB60F9211242F933F934F935F936F93F8
:1013F0007F938F939F93AF93BF93EF93FF9364B1CA
:1014000075B180E090E00E94620B20E030E040E2A5
:1014100051E40E94C10A2DEC3CEC4CE45EE30E94D6
:10142000540A609353027093540280935502909330
:1014300056020E94330B6093D601FF91EF91BF914A
:10144000AF919F918F917F916F915F914F913F915C
:101450002F910F900FBE0F901F9018951F920F9213
:101460000FB60F9211242F933F934F935F936F9377
:101470007F938F939F93AF93BF93EF93FF938CB121
:101480008CB90E94B308FF91EF91BF91AF919F91EA
:101490008F917F916F915F914F913F912F910F901D
:1014A0000FBE0F901F9018955058BB27AA270E9477
:1014B0006C0A0C94B60B0E94A80B38F00E94AF0B7C
:1014C00020F039F49F3F19F426F40C94A50B0EF488
:1014D000E095E7FB0C949F0BE92F0E94C70B58F394
:1014E000BA17620773078407950720F079F4A6F509
:1014F0000C94E90B0EF4E0950B2EBA2FA02D0B01E6
:10150000B90190010C01CA01A0011124FF27591B48
:1015100099F0593F50F4503E68F11A16F040A22F4E
:10152000232F342F4427585FF3CF469537952795BF
:10153000A795F0405395C9F77EF41F16BA0B620BBE
:10154000730B840BBAF09150A1F0FF0FBB1F661F05
:10155000771F881FC2F70EC0BA0F621F731F841F48
:1015600048F4879577956795B795F7959E3F08F06E
:10157000B0CF9395880F08F09927EE0F9795879530
:1015800008950E94D50A0C94B60B0E94AF0B58F038
:101590000E94A80B40F029F45F3F29F00C949F0BA8
:1015A00051110C94EA0B0C94A50B0E94C70B68F325
:1015B0009923B1F3552391F3951B550BBB27AA270C
:1015C00062177307840738F09F5F5F4F220F331F46
:1015D000441FAA1FA9F335D00E2E3AF0E0E832D00E
:1015E00091505040E695001CCAF72BD0FE2F29D011
:1015F000660F771F881FBB1F261737074807AB07E3
:10160000B0E809F0BB0B802DBF01FF2793585F4F57
:101610003AF09E3F510578F00C949F0B0C94EA0B26
:101620005F3FE4F3983ED4F3869577956795B79539
:10163000F7959F5FC9F7880F911D9695879597F944
:101640000895E1E0660F771F881FBB1F62177307BD
:101650008407BA0720F0621B730B840BBA0BEE1FD2
:1016600088F7E09508950E94CF0B88F09F5798F077
:10167000B92F9927B751B0F0E1F0660F771F881F97
:10168000991F1AF0BA95C9F714C0B13091F00E94B1
:10169000E90BB1E008950C94E90B672F782F8827A8
:1016A000B85F39F0B93FCCF3869577956795B395D8
:1016B000D9F73EF490958095709561957F4F8F4F47
:1016C0009F4F0895E89409C097FB3EF4909580954C
:1016D000709561957F4F8F4F9F4F9923A9F0F92FF8
:1016E00096E9BB279395F695879577956795B79576
:1016F000F111F8CFFAF4BB0F11F460FF1BC06F5F5C
:101700007F4F8F4F9F4F16C0882311F096E911C06D
:10171000772321F09EE8872F762F05C0662371F08E
:1017200096E8862F70E060E02AF09A95660F771FA2
:10173000881FDAF7880F9695879597F9089597F996
:101740009F6780E870E060E008959FEF80EC089567
:1017500000240A9416161706180609060895002490
:101760000A9412161306140605060895092E03940A
:10177000000C11F4882352F0BB0F40F4BF2B11F47E
:1017800060FF04C06F5F7F4F8F4F9F4F089557FDDD
:101790009058440F551F59F05F3F71F04795880FDF
:1017A00097FB991F61F09F3F79F087950895121676
:1017B00013061406551FF2CF4695F1DF08C0161622
:1017C00017061806991FF1CF8695710561050894D3
:1017D0000895E894BB2766277727CB0197F90895EA
:1017E000A1E21A2EAA1BBB1BFD010DC0AA1FBB1F25
:1017F000EE1FFF1FA217B307E407F50720F0A21B97
:10180000B30BE40BF50B661F771F881F991F1A9403
:1018100069F760957095809590959B01AC01BD012D
:10182000CF010895FB01DC018D9101908019011019
:10183000D9F3990B0895FB01DC0101900D92002072
:10184000E1F70895AEE0B0E0E8E2FCE00C94171296
:101850000D891E8986E08C831A8309838FEF9FE7A9
:101860009E838D83AE01475E5F4F6F89788DCE0179
:1018700001960E945D0CEF81F885E00FF11F108248
:101880002E96E4E00C943312AEE0B0E0EAE4FCE023
:101890000C94191285E08C838B899C899A838983A7
:1018A000AE01495E5F4F6D897E89CE0101960E942F
:1018B000DA0F2E96E2E00C943512ABE0B0E0E3E6EE
:1018C000FCE00C9409126C017B018A01FC01178277
:1018D0001682838181FFCCC1CE0101963C01F601C5
:1018E0009381F70193FD859193FF81917F01882377
:1018F00009F4BAC1853239F493FD859193FF819142
:101900007F01853229F4B60190E00E945311E7CFA0
:10191000912C212C312CFFE1F315D8F08B3279F08A
:1019200038F4803279F08332A1F4232D20611DC078
:101930008D3261F0803369F4232D216016C0832D30
:101940008260382EE32DE4603E2E2AC0F32DF8602D
:101950001DC037FC2DC020ED280F2A3040F08E32FC
:10196000B9F436FC81C1232D2064322E19C036FE15
:1019700006C08AE0989E200D1124922E11C0EAE044
:101980002E9E200D1124222EF32DF0623F2E08C032
:101990008C3621F4832D8068382E02C0883641F4BD
:1019A000F70193FD859193FF81917F018111B3CF61
:1019B000982F9F7D9554933028F40C5F1F4F9FE321
:1019C00099830DC0833631F0833771F0833509F088
:1019D00059C021C0F801808189830E5F1F4F882480
:1019E0008394912C530113C02801F2E04F0E511C37
:1019F000F801A080B18036FE03C0692D70E002C0FE
:101A00006FEF7FEFC5010E940A114C018201F32D97
:101A1000FF773F2E16C0280122E0420E511CF8012C
:101A2000A080B18036FE03C0692D70E002C06FEF68
:101A30007FEFC5010E94FF104C01F32DF0683F2E8F
:101A4000820133FC1BC0822D90E088169906B0F409
:101A5000B60180E290E00E9453112A94F4CFF50180
:101A600037FC859137FE81915F01B60190E00E94BD
:101A7000531121102A9421E0821A910881149104B3
:101A800071F7E8C0843611F0893641F5F80137FE68
:101A900007C060817181828193810C5F1F4F08C0F4
:101AA00060817181072E000C880B990B0E5F1F4F10
:101AB000F32DFF763F2E97FF09C090958095709586
:101AC00061957F4F8F4F9F4FF0683F2E2AE030E0A7
:101AD000A3010E94A811882E861845C0853731F4CD
:101AE000232D2F7EB22E2AE030E025C0932D997F42
:101AF000B92E8F36C1F018F4883579F0B5C080372B
:101B000019F0883721F0B0C0E92FE061BE2EB4FE95
:101B10000DC0FB2DF460BF2E09C034FE0AC0292F72
:101B20002660B22E06C028E030E005C020E130E09B
:101B300002C020E132E0F801B7FE07C06081718188
:101B4000828193810C5F1F4F06C06081718180E0AC
:101B500090E00E5F1F4FA3010E94A811882E8618E7
:101B6000FB2DFF773F2E36FE0DC0232D2E7FA22E9C
:101B7000891458F434FE0BC032FC09C0832D8E7ECC
:101B8000A82E05C0B82CA32C03C0B82C01C0B92CBA
:101B9000A4FE0FC0FE01E80DF11D8081803321F409
:101BA0009A2D997EA92E09C0A2FE06C0B394B394C3
:101BB00004C08A2D867809F0B394A3FC11C0A0FE5E
:101BC00006C0B21488F4280C922C9B180EC0B214D4
:101BD00060F4B60180E290E00E945311B394F7CF15
:101BE000B21418F42B1802C0982C212CA4FE10C09B
:101BF000B60180E390E00E945311A2FE17C0A1FC41
:101C000003C088E790E002C088E590E0B6010CC010
:101C10008A2D867859F0A1FE02C08BE201C080E2D5
:101C2000A7FC8DE2B60190E00E945311891438F4AC
:101C3000B60180E390E00E9453119A94F7CF8A9402
:101C4000F301E80DF11D8081B60190E00E9453116F
:101C50008110F5CF222009F442CEB60180E290E057
:101C60000E9453112A94F6CFF6018681978102C013
:101C70008FEF9FEF2B96E2E10C94251220FD09C017
:101C8000FC0123FD05C022FF02C0738362835183E0
:101C90004083089544FD17C046FD17C0AB01BC0149
:101CA000DA01FB01AA0FBB1FEE1FFF1F1094D1F733
:101CB0004A0F5B1F6E1F7F1FCB01BA01660F771F94
:101CC000881F991F09C033E001C034E0660F771FF9
:101CD000881F991F3150D1F7620F711D811D911D11
:101CE00008950F931F93CF93DF938C01C8010E9437
:101CF0001511EC0197FD08C00E94EB10892BB1F77C
:101D0000B801CE010E948F11CE01DF91CF911F91BA
:101D10000F9108958F929F92AF92BF92EF92FF9290
:101D20000F931F93CF93DF938C01D62F7A01B22E9E
:101D30000E9415119C0133272B32310531F02D32D1
:101D4000310561F48B2D8068B82ED15011F480E0FC
:101D500068C0C8010E94151197FDF9CFCB2DCD7F2A
:101D60002B2D207309F58033F9F4AA24AA94AD0E23
:101D700009F443C0C8010E94151197FD3EC09C01A3
:101D80002F7D33272835310549F4C264D250A9F19B
:101D9000C8010E94151197FF07C02FC0B6FE02C0F0
:101DA000C26001C0C261DA2D812C912C540120ED5A
:101DB000280F283080F0C4FF04C0B8010E948F11A2
:101DC00019C02A3040F0C6FFF8CF2F7D3FEE320F0A
:101DD000363098F727504C2FC501B4010E944A0EA7
:101DE0004B015C01C260D15059F0C8010E9415112D
:101DF00097FFDDCFC1FD04C0AACF812C912C5401E7
:101E0000C7FF08C0B094A09490948094811C911C4A
:101E1000A11CB11C2C2FB501A401C7010E943E0ECC
:101E200081E0DF91CF911F910F91FF90EF90BF90D4
:101E3000AF909F908F900895A0E2B0E0E2E2FFE0C3
:101E40000C940C125C01962E7A01F9018E010F5F41
:101E50001F4F680180E2D8011D928A95E9F7D501EC
:101E600013968C9080E090E0612C712C30E061E062
:101E700070E083FC259183FE21918F01522E211168
:101E800003C080E090E092C02E3511F4009751F12C
:101E9000432F50E0481759073CF42D3559F12D32A6
:101EA00019F4772009F103C0772009F46AC0452DA1
:101EB000469546954695D601A40FB11D452D477010
:101EC0008B0102C0000F111F4A95E2F7A8015C9137
:101ED000452B4C93651459F0561410F45394E7CFE6
:101EE0005A94E5CF31E004C07724739401C0712C7B
:101EF0000196BFCF772019F08E8180628E833111D9
:101F000003C08824839417C0F6019E012F5D3F4FC4
:101F10008081809581932E173F07D1F7F2CFE1148E
:101F2000F10429F0D7018C93F70131967F019A943F
:101F3000812C9920F9F0C5010E94151197FD18C058
:101F4000FC01FF2723E0F595E7952A95E1F7EC0DD5
:101F5000FD1D208130E0AC014770552702C035954A
:101F600027954A95E2F720FDDACFB5010E948F113F
:101F7000811087CFE114F10411F0D7011C92C80140
:101F800015C0422F469546954695D601A40FB11D22
:101F9000422F47708B0102C0000F111F4A95E2F7D4
:101FA000A8015C91452B4C93622EA2CFA096EFE046
:101FB0000C942812A0E0B0E0E0EEFFE00C940C12CC
:101FC0006C01EB015A01FC0117821682512CF601BB
:101FD000E380FE01E3FC8591E3FE8191182FEF0180
:101FE000882309F4EEC090E00E94EB10892B21F0C9
:101FF000C6010E94710EEBCF153241F4FE01E3FCE5
:102000001591E3FE1191EF01153281F4C6010E9492
:10201000151197FDD4C0412F50E09C0133272417A0
:102020003507A9F2B6010E948F11CBC01A3239F4DC
:10203000E3FC1591E3FE1191EF0101E001C000E026
:10204000F12C20ED210F2A3080F402606F2D70E01A
:1020500080E090E040E20E944A0EF62EFE01E3FC92
:102060001591E3FE1191EF01ECCF01FF03C0F110D8
:1020700003C0A7C0FF24FA94183619F01C3651F09B
:1020800010C0FE01E3FC1591E3FE1191EF0118363B
:1020900041F408600460FE01E3FC1591E3FE119138
:1020A000EF01112309F48DC0612F70E084E590E009
:1020B0000E94F410892B09F484C000FD07C0F501CB
:1020C00080809180C50102965C0102C0812C912C18
:1020D0001E3651F4F6014681578160E070E0202FF2
:1020E000C4010E943E0E73CF1336A9F401FD02C055
:1020F000FF24F394C6010E94151197FD60C081145E
:10210000910429F0F4018083C40101964C01FA94F2
:10211000F110F0CF50C01B3559F49E01A4016F2D72
:10212000C6010E941C0FEC01892B09F044C03EC07F
:10213000C6010E94710E97FD42C01F3661F128F45E
:10214000143639F1193651F128C0133771F01537AB
:1021500001F123C08114910429F0F4016082C401CB
:1021600001964C01FA94FF2071F0C6010E941511EE
:102170003C0197FD08C00E94EB10892B59F3B60172
:10218000C3010E948F1181149104A9F0F4011082FF
:1021900012C0006203C0006101C00064202FA401CE
:1021A0006F2DC6010E948A0E811105C0F601838140
:1021B000807329F406C000FD0ACF539408CF552040
:1021C00019F0852D90E002C08FEF9FEFCDB7DEB7FD
:1021D000EFE00C94281291110C940612803219F041
:1021E00089508550C8F70895FC010590061621F026
:1021F0000020D9F7C00108953197CF010895FC015F
:102200000590615070400110D8F7809590958E0F21
:102210009F1F0895FC016150704001900110D8F794
:10222000809590958E0F9F1F0895CF93DF93EC01BB
:102230002B8120FF33C026FF0AC02F7B2B838E818A
:102240009F8101969F838E838A8190E029C022FF1F
:102250000FC0E881F9818081082E000C990B00974E
:1022600019F420622B831AC03196F983E8830EC0DB
:10227000EA85FB85099597FF09C02B81019611F02E
:1022800080E201C080E1822B8B8308C02E813F81D8
:102290002F5F3F4F3F832E83992702C08FEF9FEF21
:1022A000DF91CF9108950F931F93CF93DF93FB019D
:1022B000238121FD03C08FEF9FEF2CC022FF16C0AA
:1022C00046815781248135814217530744F4A08108
:1022D000B1819D012F5F3F4F318320838C932681F5
:1022E00037812F5F3F4F3783268314C08B01EC016A
:1022F000FB010084F185E02D0995892BE1F6D801D9
:1023000016968D919C911797019617969C938E9394
:102310001697CE01DF91CF911F910F910895FB0188
:10232000238120FF12C026FD10C08F3F3FEF93078F
:1023300061F082832F7D20642383268137812150A1
:10234000310937832683992708958FEF9FEF0895EA
:10235000FA01AA27283051F1203181F1E8946F93D6
:102360006E7F6E5F7F4F8F4F9F4FAF4FB1E03ED07C
:10237000B4E03CD0670F781F891F9A1FA11D680F1A
:10238000791F8A1F911DA11D6A0F711D811D911D4D
:10239000A11D20D009F468943F912AE0269F1124C2
:1023A0003019305D3193DEF6CF010895462F477026
:1023B000405D4193B3E00FD0C9F7F6CF462F4F7081
:1023C000405D4A3318F0495D31FD4052419302D0DF
:1023D000A9F7EACFB4E0A695979587957795679585
:1023E000BA95C9F700976105710508959B01AC0185
:1023F0000A2E06945795479537952795BA95C9F7AC
:10240000620F731F841F951FA01D089599278827A9
:1024100008952F923F924F925F926F927F928F9288
:102420009F92AF92BF92CF92DF92EF92FF920F9363
:102430001F93CF93DF93CDB7DEB7CA1BDB0B0FB66D
:10244000F894DEBF0FBECDBF09942A88398848882A
:102450005F846E847D848C849B84AA84B984C884C0
:10246000DF80EE80FD800C811B81AA81B981CE0FB7
:10247000D11D0FB6F894DEBF0FBECDBFED0108959C
:04248000F894FFCFFE
:10248400018B0190019A01200010004000080025F2
:102494003032643A253032643A25303264002530D3
:1024A40032642F253032642F2530326400257320A6
:1024B400257320257320257300253264DF4300250E
:1024C400336C75636D0025643A25643A25640025F0
:1024D400642F25642F2564000D446F6E65210D0063
:1024E4000D2A2A2A2A2A2A20203C3C2048656C707E
:1024F400203E3E20202A2A2A2A2A2A0D000D2020A6
:10250400207365742074696D652048483A4D4D3ACE
:102514005353204D4D2F44442F59590D002D3E2027
:1025240053657473207468652064657369726564A7
:102534002074696D650D000D202020736574206181
:102544006C61726D2048483A4D4D3A53530D002D3D
:102554003E205365747320746865206465736972E2
:10256400656420616C61726D0D000D496E76616C5D
:10257400696420696E707574210D0048656C6C6F18
:10258400207468657265210D00577269746520684E
:10259400656C7020666F72206C697374206F66209E
:1025A400636F6D6D616E64732E0D0068656C7000F1
:1025B40073657420616C61726D0073657420746955
:0425C4006D65000041
:00000001FF
